{
	"_format": "hh-sol-artifact-1",
	"contractName": "Cert",
	"sourceName": "contracts/Cert.sol",
	"abi": [
		{
			"inputs": [],
			"stateMutability": "nonpayable",
			"type": "constructor"
		},
		{
			"anonymous": false,
			"inputs": [
				{
					"indexed": false,
					"internalType": "uint256",
					"name": "",
					"type": "uint256"
				},
				{
					"indexed": false,
					"internalType": "string",
					"name": "",
					"type": "string"
				}
			],
			"name": "Issued",
			"type": "event"
		},
		{
			"anonymous": false,
			"inputs": [
				{
					"indexed": false,
					"internalType": "uint256",
					"name": "",
					"type": "uint256"
				},
				{
					"indexed": false,
					"internalType": "bytes",
					"name": "",
					"type": "bytes"
				}
			],
			"name": "Uploaded",
			"type": "event"
		},
		{
			"inputs": [
				{
					"internalType": "uint256",
					"name": "",
					"type": "uint256"
				}
			],
			"name": "Certificates",
			"outputs": [
				{
					"internalType": "string",
					"name": "name",
					"type": "string"
				},
				{
					"internalType": "string",
					"name": "course",
					"type": "string"
				},
				{
					"internalType": "string",
					"name": "grade",
					"type": "string"
				},
				{
					"internalType": "string",
					"name": "date",
					"type": "string"
				}
			],
			"stateMutability": "view",
			"type": "function"
		},
		{
			"inputs": [
				{
					"internalType": "uint256",
					"name": "",
					"type": "uint256"
				}
			],
			"name": "Documents",
			"outputs": [
				{
					"internalType": "bytes",
					"name": "",
					"type": "bytes"
				}
			],
			"stateMutability": "view",
			"type": "function"
		},
		{
			"inputs": [
				{
					"internalType": "uint256",
					"name": "_id",
					"type": "uint256"
				},
				{
					"internalType": "string",
					"name": "_name",
					"type": "string"
				},
				{
					"internalType": "string",
					"name": "_course",
					"type": "string"
				},
				{
					"internalType": "string",
					"name": "_grade",
					"type": "string"
				},
				{
					"internalType": "string",
					"name": "_date",
					"type": "string"
				}
			],
			"name": "issueCertificate",
			"outputs": [],
			"stateMutability": "nonpayable",
			"type": "function"
		},
		{
			"inputs": [
				{
					"internalType": "uint256",
					"name": "_id",
					"type": "uint256"
				},
				{
					"internalType": "bytes",
					"name": "_hash",
					"type": "bytes"
				}
			],
			"name": "uploadDocument",
			"outputs": [],
			"stateMutability": "nonpayable",
			"type": "function"
		}
	],
	"bytecode": "0x608060405234801561001057600080fd5b50336000806101000a81548173ffffffffffffffffffffffffffffffffffffffff021916908373ffffffffffffffffffffffffffffffffffffffff16021790555061103d806100606000396000f3fe608060405234801561001057600080fd5b506004361061004c5760003560e01c806361a04be9146100515780639622c83614610081578063d8e6219e146100b4578063f6fa9e05146100d0575b600080fd5b61006b6004803603810190610066919061066f565b6100ec565b604051610078919061072c565b60405180910390f35b61009b6004803603810190610096919061066f565b61018c565b6040516100ab94939291906107a3565b60405180910390f35b6100ce60048036038101906100c99190610939565b6103dc565b005b6100ea60048036038101906100e59190610ac5565b610539565b005b6002602052806000526040600020600091509050805461010b90610b50565b80601f016020809104026020016040519081016040528092919081815260200182805461013790610b50565b80156101845780601f1061015957610100808354040283529160200191610184565b820191906000526020600020905b81548152906001019060200180831161016757829003601f168201915b505050505081565b60016020528060005260406000206000915090508060000180546101af90610b50565b80601f01602080910402602001604051908101604052809291908181526020018280546101db90610b50565b80156102285780601f106101fd57610100808354040283529160200191610228565b820191906000526020600020905b81548152906001019060200180831161020b57829003601f168201915b50505050509080600101805461023d90610b50565b80601f016020809104026020016040519081016040528092919081815260200182805461026990610b50565b80156102b65780601f1061028b576101008083540402835291602001916102b6565b820191906000526020600020905b81548152906001019060200180831161029957829003601f168201915b5050505050908060020180546102cb90610b50565b80601f01602080910402602001604051908101604052809291908181526020018280546102f790610b50565b80156103445780601f1061031957610100808354040283529160200191610344565b820191906000526020600020905b81548152906001019060200180831161032757829003601f168201915b50505050509080600301805461035990610b50565b80601f016020809104026020016040519081016040528092919081815260200182805461038590610b50565b80156103d25780601f106103a7576101008083540402835291602001916103d2565b820191906000526020600020905b8154815290600101906020018083116103b557829003601f168201915b5050505050905084565b60008054906101000a900473ffffffffffffffffffffffffffffffffffffffff1673ffffffffffffffffffffffffffffffffffffffff163373ffffffffffffffffffffffffffffffffffffffff161461046a576040517f08c379a000000000000000000000000000000000000000000000000000000000815260040161046190610bcd565b60405180910390fd5b6040518060800160405280858152602001848152602001838152602001828152506001600087815260200190815260200160002060008201518160000190816104b39190610d99565b5060208201518160010190816104c99190610d99565b5060408201518160020190816104df9190610d99565b5060608201518160030190816104f59190610d99565b509050507f6f0d4ed09360dcc2710057310fc932744b9cfddf8c87f0ed6cf244b7abd2f9a0858260405161052a929190610e7a565b60405180910390a15050505050565b60008054906101000a900473ffffffffffffffffffffffffffffffffffffffff1673ffffffffffffffffffffffffffffffffffffffff163373ffffffffffffffffffffffffffffffffffffffff16146105c7576040517f08c379a00000000000000000000000000000000000000000000000000000000081526004016105be90610bcd565b60405180910390fd5b806002600084815260200190815260200160002090816105e79190610f05565b507f7550552f347ba5b35a977974ab559a88dc739263003ee6e52f296564fb3f8bea8282604051610619929190610fd7565b60405180910390a15050565b6000604051905090565b600080fd5b600080fd5b6000819050919050565b61064c81610639565b811461065757600080fd5b50565b60008135905061066981610643565b92915050565b6000602082840312156106855761068461062f565b5b60006106938482850161065a565b91505092915050565b600081519050919050565b600082825260208201905092915050565b60005b838110156106d65780820151818401526020810190506106bb565b60008484015250505050565b6000601f19601f8301169050919050565b60006106fe8261069c565b61070881856106a7565b93506107188185602086016106b8565b610721816106e2565b840191505092915050565b6000602082019050818103600083015261074681846106f3565b905092915050565b600081519050919050565b600082825260208201905092915050565b60006107758261074e565b61077f8185610759565b935061078f8185602086016106b8565b610798816106e2565b840191505092915050565b600060808201905081810360008301526107bd818761076a565b905081810360208301526107d1818661076a565b905081810360408301526107e5818561076a565b905081810360608301526107f9818461076a565b905095945050505050565b600080fd5b600080fd5b7f4e487b7100000000000000000000000000000000000000000000000000000000600052604160045260246000fd5b610846826106e2565b810181811067ffffffffffffffff821117156108655761086461080e565b5b80604052505050565b6000610878610625565b9050610884828261083d565b919050565b600067ffffffffffffffff8211156108a4576108a361080e565b5b6108ad826106e2565b9050602081019050919050565b82818337600083830152505050565b60006108dc6108d784610889565b61086e565b9050828152602081018484840111156108f8576108f7610809565b5b6109038482856108ba565b509392505050565b600082601f8301126109205761091f610804565b5b81356109308482602086016108c9565b91505092915050565b600080600080600060a086880312156109555761095461062f565b5b60006109638882890161065a565b955050602086013567ffffffffffffffff81111561098457610983610634565b5b6109908882890161090b565b945050604086013567ffffffffffffffff8111156109b1576109b0610634565b5b6109bd8882890161090b565b935050606086013567ffffffffffffffff8111156109de576109dd610634565b5b6109ea8882890161090b565b925050608086013567ffffffffffffffff811115610a0b57610a0a610634565b5b610a178882890161090b565b9150509295509295909350565b600067ffffffffffffffff821115610a3f57610a3e61080e565b5b610a48826106e2565b9050602081019050919050565b6000610a68610a6384610a24565b61086e565b905082815260208101848484011115610a8457610a83610809565b5b610a8f8482856108ba565b509392505050565b600082601f830112610aac57610aab610804565b5b8135610abc848260208601610a55565b91505092915050565b60008060408385031215610adc57610adb61062f565b5b6000610aea8582860161065a565b925050602083013567ffffffffffffffff811115610b0b57610b0a610634565b5b610b1785828601610a97565b9150509250929050565b7f4e487b7100000000000000000000000000000000000000000000000000000000600052602260045260246000fd5b60006002820490506001821680610b6857607f821691505b602082108103610b7b57610b7a610b21565b5b50919050565b7f4163636573732044656e69656400000000000000000000000000000000000000600082015250565b6000610bb7600d83610759565b9150610bc282610b81565b602082019050919050565b60006020820190508181036000830152610be681610baa565b9050919050565b60008190508160005260206000209050919050565b60006020601f8301049050919050565b600082821b905092915050565b600060088302610c4f7fffffffffffffffffffffffffffffffffffffffffffffffffffffffffffffffff82610c12565b610c598683610c12565b95508019841693508086168417925050509392505050565b6000819050919050565b6000610c96610c91610c8c84610639565b610c71565b610639565b9050919050565b6000819050919050565b610cb083610c7b565b610cc4610cbc82610c9d565b848454610c1f565b825550505050565b600090565b610cd9610ccc565b610ce4818484610ca7565b505050565b5b81811015610d0857610cfd600082610cd1565b600181019050610cea565b5050565b601f821115610d4d57610d1e81610bed565b610d2784610c02565b81016020851015610d36578190505b610d4a610d4285610c02565b830182610ce9565b50505b505050565b600082821c905092915050565b6000610d7060001984600802610d52565b1980831691505092915050565b6000610d898383610d5f565b9150826002028217905092915050565b610da28261074e565b67ffffffffffffffff811115610dbb57610dba61080e565b5b610dc58254610b50565b610dd0828285610d0c565b600060209050601f831160018114610e035760008415610df1578287015190505b610dfb8582610d7d565b865550610e63565b601f198416610e1186610bed565b60005b82811015610e3957848901518255600182019150602085019450602081019050610e14565b86831015610e565784890151610e52601f891682610d5f565b8355505b6001600288020188555050505b505050505050565b610e7481610639565b82525050565b6000604082019050610e8f6000830185610e6b565b8181036020830152610ea1818461076a565b90509392505050565b60008190508160005260206000209050919050565b601f821115610f0057610ed181610eaa565b610eda84610c02565b81016020851015610ee9578190505b610efd610ef585610c02565b830182610ce9565b50505b505050565b610f0e8261069c565b67ffffffffffffffff811115610f2757610f2661080e565b5b610f318254610b50565b610f3c828285610ebf565b600060209050601f831160018114610f6f5760008415610f5d578287015190505b610f678582610d7d565b865550610fcf565b601f198416610f7d86610eaa565b60005b82811015610fa557848901518255600182019150602085019450602081019050610f80565b86831015610fc25784890151610fbe601f891682610d5f565b8355505b6001600288020188555050505b505050505050565b6000604082019050610fec6000830185610e6b565b8181036020830152610ffe81846106f3565b9050939250505056fea26469706673582212203c9a0a3b5aa13a4ad8bf328309fa2b5bf9f3318a4a9ae09d7ef2763002cb435e64736f6c63430008110033",
	"linkReferences": {},
	"deployedLinkReferences": {}
}